:100000000C9458000C9480000C9480000C94800098
:100010000C9480000C9480000C9480000C94800060
:100020000C9480000C9480000C9480000C94800050
:100030000C9480000C9480000C9480000C94800040
:100040000C9446020C9480000C94B6020C9490021E
:100050000C9480000C9480000C9480000C94800020
:100060000C9480000C948000000000002500280003
:100070002B00040404040404040402020202020229
:10008000030303030303010204081020408001025C
:1000900004081020010204081020000000080002DB
:1000A00001000003040700000000000000008703B7
:1000B00011241FBECFEFD8E0DEBFCDBF11E0A0E01E
:1000C000B1E0E2E8F7E002C005900D92A232B1077C
:1000D000D9F721E0A2E2B1E001C01D92A83CB2072D
:1000E000E1F710E0C8E5D0E004C02197FE010E94CE
:1000F000B403C735D107C9F70E94E8020C94BF03C7
:100100000C94000090E0FC01E656FF4F2491FC01A6
:10011000EA57FF4F3491FC01EE58FF4FE491EE2374
:1001200009F43CC0222339F1233091F038F4213016
:10013000A9F0223001F584B58F7D12C0273091F0EF
:100140002830A1F02430B9F4809180008F7D03C065
:10015000809180008F77809380000DC084B58F7769
:1001600084BD09C08091B0008F7703C08091B0003A
:100170008F7D8093B000F0E0EE0FFF1FE859FF4F36
:10018000A591B4919FB7F894611104C08C913095FA
:10019000382302C0EC913E2B3C939FBF08953FB79C
:1001A000F8948091270190912801A0912901B091A4
:1001B0002A0126B5A89B05C02F3F19F00196A11D65
:1001C000B11D3FBFBA2FA92F982F8827820F911DED
:1001D000A11DB11DBC01CD0142E0660F771F881F34
:1001E000991F4A95D1F708958F929F92AF92BF922F
:1001F000CF92DF92EF92FF920E94CF004B015C0101
:1002000088EEC82E83E0D82EE12CF12C0E94CF007E
:10021000DC01CB0188199909AA09BB09883E9340E2
:10022000A105B10598F321E0C21AD108E108F1084F
:1002300088EE880E83E0981EA11CB11CC114D10465
:10024000E104F10419F7FF90EF90DF90CF90BF9099
:10025000AF909F908F900895CF92DF92EF92FF9290
:100260000F931F93CF93DF936C017A018B01C0E052
:10027000D0E0CE15DF0581F0D8016D918D01D6015A
:10028000ED91FC910190F081E02DC6010995892B3B
:1002900011F02196EECF7E01C701DF91CF911F9122
:1002A0000F91FF90EF90DF90CF900895089580E038
:1002B00090E00895FC01538D448D252F30E0842F6C
:1002C00090E0821B930B541710F0CF96089501977E
:1002D0000895FC01918D828D981761F0828DDF0168
:1002E000A80FB11D5D968C91928D9F5F9F73928F29
:1002F00090E008958FEF9FEF0895FC01918D828D1E
:10030000981731F0828DE80FF11D858D90E00895EA
:100310008FEF9FEF0895FC01918D228D892F90E042
:10032000805C9F4F821B91098F73992708958BE200
:1003300091E00E948B0121E0892B09F420E0822FBB
:100340000895FC01848DDF01A80FB11DA35ABF4F92
:100350002C91848D90E001968F739927848FA689C4
:10036000B7892C93A089B1898C91837080648C9318
:10037000938D848D981306C00288F389E02D8081C7
:100380008F7D80830895EF92FF920F931F93CF93F9
:10039000DF93EC0181E0888F9B8D8C8D981305C0D5
:1003A000E889F989808185FD26C0F62E0B8D10E045
:1003B0000F5F1F4F0F731127E02E8C8DE8120CC0BA
:1003C0000FB607FCFACFE889F989808185FFF5CF60
:1003D000CE010E94A101F1CF8B8DFE01E80FF11D2E
:1003E000E35AFF4FF0829FB7F8940B8FEA89FB899D
:1003F000808180620AC09FB7F894EE89FF8960838C
:10040000E889F98980818370806480839FBF81E05F
:1004100090E0DF91CF911F910F91FF90EF900895A1
:10042000CF93DF93EC01888D8823C9F0EA89FB899B
:10043000808185FD05C0A889B9898C9186FD0FC092
:100440000FB607FCF5CF808185FFF2CFA889B98967
:100450008C9185FFEDCFCE010E94A101E7CFDF9106
:10046000CF91089580E090E0892B29F00E949701B8
:1004700081110C940000089542E050E062E171E0C7
:100480008BE291E00C942C010E94BA031F920F9210
:100490000FB60F9211242F933F938F939F93AF9397
:1004A000BF938091230190912401A0912501B091E7
:1004B00026013091220123E0230F2D3720F40196ED
:1004C000A11DB11D05C026E8230F0296A11DB11D77
:1004D000209322018093230190932401A09325016E
:1004E000B09326018091270190912801A0912901C4
:1004F000B0912A010196A11DB11D8093270190930F
:100500002801A0932901B0932A01BF91AF919F9137
:100510008F913F912F910F900FBE0F901F901895C4
:100520001F920F920FB60F9211242F933F934F9368
:100530005F936F937F938F939F93AF93BF93EF934B
:10054000FF938BE291E00E94A101FF91EF91BF9197
:10055000AF919F918F917F916F915F914F913F915B
:100560002F910F900FBE0F901F9018951F920F9212
:100570000FB60F9211242F938F939F93EF93FF93B6
:10058000E0913B01F0913C018081E0914101F091CB
:10059000420182FD12C09081809144018F5F8F7370
:1005A00020914501821751F0E0914401F0E0E55DB2
:1005B000FE4F958F8093440101C08081FF91EF91A0
:1005C0009F918F912F910F900FBE0F901F901895B4
:1005D000789484B5826084BD84B5816084BD85B51E
:1005E000826085BD85B5816085BD80916E0081602A
:1005F00080936E00109281008091810082608093D0
:1006000081008091810081608093810080918000D1
:100610008160809380008091B10084608093B100FC
:100620008091B00081608093B00080917A008460F6
:1006300080937A0080917A00826080937A00809122
:100640007A00816080937A0080917A00806880933C
:100650007A001092C100E0913B01F0913C0182E0F0
:100660008083E0913701F09138011082E0913901E7
:10067000F0913A018FEC808310924301E0913F01A9
:10068000F091400186E08083E0913D01F0913E01D0
:10069000808180618083E0913D01F0913E01808105
:1006A00088608083E0913D01F0913E018081806807
:1006B0008083E0913D01F0913E0180818F7D8083B8
:1006C00061E08AE00E94820046E050E065E171E06E
:1006D0008BE291E00E942C010E943C0260E08DE0E0
:1006E0000E9482000E94F40061E08DE00E9482007E
:1006F0000E94F40045E050E06CE171E08BE291E093
:100700000E942C010E943C020E943202DDCFEBE2EB
:10071000F1E01382128288EE93E0A0E0B0E08483DF
:100720009583A683B78384E091E09183808385ECF1
:1007300090E09587848784EC90E09787868780ECAB
:1007400090E0918B808B81EC90E0938B828B82EC9C
:1007500090E0958B848B86EC90E0978B868B118E46
:10076000128E138E148E0895EE0FFF1F0590F491D4
:10077000E02D099481E090E0F8940C94BF03F89484
:02078000FFCFA9
:1007820000000000C3012C015A0110028B01690113
:100792007D010D0A00616C6F31203A00616C6F209F
:0207A2003A001B
:00000001FF
