:100000000C9467000C948F000C948F000C948F005C
:100010000C948F000C948F000C94840B0C948F0024
:100020000C948F000C948F000C948F000C948F0014
:100030000C948F000C948F000C948F000C948F0004
:100040000C9464030C948F000C94D3020C94AD02B6
:100050000C948F000C948F000C948F000C948F00E4
:100060000C948F000C948F00760876087608B508FB
:100070009C08AF0876087608B5089C0800000000C8
:10008000240027002A0000000000250028002B0083
:10009000040404040404040402020202020203032E
:1000A0000303030301020408102040800102040836
:1000B00010200102040810200000000800020100C6
:1000C000000304070000000000000000B50D11242B
:1000D0001FBECFEFD8E0DEBFCDBF11E0A0E0B1E0A2
:1000E000E2E4F3E202C005900D92AA33B107D9F71A
:1000F00022E0AAE3B1E001C01D92AB36B207E1F7FE
:1001000010E0C7E6D0E004C02197FE010E948411F0
:10011000C636D107C9F70E94960C0C949F110C9417
:1001200000001D9A0895259A2D9A0895E1EBF0E0BC
:100130002491EDE9F0E08491882399F090E0880F14
:10014000991FFC01E458FF4FA591B491FC01EA57B7
:10015000FF4F859194918FB7F894EC91E22BEC933B
:100160008FBF61E08DE00E9417030E94ED0E60E0FA
:100170008DE00E9417030E94ED0EF3CFCF93DF9323
:10018000CDB7DEB7A1970FB6F894DEBF0FBECDBFD7
:1001900081E4B82E9AE0C92ED12CE12CF12CB0923A
:1001A0007C0080917A00806480937A0080917A004C
:1001B00086FDFCCF809178002091790090E0922B11
:1001C0002C01092E000C6608770897FF20C06DE20D
:1001D0008DEA91E00E94320222273327A9012419D7
:1001E00035094609570919A28E010F5D1F4FCA0133
:1001F000B901A70196010E946211605DF801629346
:100200008F01211531054105510589F715C0A3015D
:10021000920119A28E010F5D1F4FCA01B901A701FA
:1002200096010E946211605DF80162938F012115B1
:1002300031054105510589F7C8010E94050342E0D7
:1002400050E068E171E08DEA91E00E949B01A7CF48
:10025000F8940E9493002FEF81EE94E021508040AB
:100260009040E1F700C000000E9491002FEF87EA64
:1002700091E6215080409040E1F700C000000E94CC
:1002800091002FEF81EE94E0215080409040E1F703
:1002900000C000000E9491002FEF81EE94E02150F9
:1002A00080409040E1F700C000000E949100D3CF51
:1002B0000F931F930CE311E020E040E850E06BE166
:1002C00071E086E990E00E94000F21E040E850E0F4
:1002D00061E271E08EEB90E00E94000FEDEAF1E048
:1002E000A089B18982E08C93A485B5851C92A685EE
:1002F000B7858FEC8C93108EA489B58986E08C939A
:10030000A289B3898C9180618C93A289B3898C91E5
:1003100088608C93A289B3898C9180688C930288C1
:10032000F389E02D80818F7D808361E08AE01F91D9
:100330000F910C941703CF92DF92EF92FF920F93DD
:100340001F93CF93DF936C017A018B01C0E0D0E063
:10035000CE15DF0581F0D8016D918D01D601ED91AB
:10036000FC910190F081E02DC6010995892B11F0D7
:100370002196EECF7E01C701DF91CF911F910F91A2
:10038000FF90EF90DF90CF900895089580E090E087
:100390000895FC01538D448D252F30E0842F90E08B
:1003A000821B930B541710F0CF9608950197089570
:1003B000FC01918D828D981761F0828DDF01A80F6D
:1003C000B11D5D968C91928D9F5F9F73928F90E08F
:1003D00008958FEF9FEF0895FC01918D828D9817FE
:1003E00031F0828DE80FF11D858D90E008958FEF3B
:1003F0009FEF0895FC01918D228D892F90E0805C04
:100400009F4F821B91098F73992708958DEA91E080
:100410000E94FA0121E0892B09F420E0822F08953F
:10042000FC01848DDF01A80FB11DA35ABF4F2C9191
:10043000848D90E001968F739927848FA689B78960
:100440002C93A089B1898C91837080648C93938D57
:10045000848D981306C00288F389E02D80818F7DFA
:1004600080830895EF92FF920F931F93CF93DF93B2
:10047000EC0181E0888F9B8D8C8D981305C0E889F5
:10048000F989808185FD26C0F62E0B8D10E00F5F67
:100490001F4F0F731127E02E8C8DE8120CC00FB682
:1004A00007FCFACFE889F989808185FFF5CFCE0175
:1004B0000E941002F1CF8B8DFE01E80FF11DE35A6F
:1004C000FF4FF0829FB7F8940B8FEA89FB898081F8
:1004D00080620AC09FB7F894EE89FF896083E8893B
:1004E000F98980818370806480839FBF81E090E080
:1004F000DF91CF911F910F91FF90EF900895CF93CF
:10050000DF93EC01888D8823C9F0EA89FB8980811B
:1005100085FD05C0A889B9898C9186FD0FC00FB6ED
:1005200007FCF5CF808185FFF2CFA889B9898C912E
:1005300085FFEDCFCE010E941002E7CFDF91CF9172
:10054000089580E090E0892B29F00E940602811135
:100550000C94000008950E948A111F920F920FB60A
:100560000F9211242F933F934F935F936F937F9339
:100570008F939F93AF93BF93EF93FF938DEA91E097
:100580000E941002FF91EF91BF91AF919F918F91C7
:100590007F916F915F914F913F912F910F900FBE7F
:1005A0000F901F9018951F920F920FB60F92112463
:1005B0002F938F939F93EF93FF93E091BD01F09161
:1005C000BE018081E091C301F091C40182FD12C09F
:1005D00090818091C6018F5F8F732091C701821730
:1005E00051F0E091C601F0E0E355FE4F958F809306
:1005F000C60101C08081FF91EF919F918F912F9152
:100600000F900FBE0F901F901895009769F0FC0196
:1006100001900020E9F73197AF01481B590BBC014D
:100620008DEA91E00C949B0180E090E0089590E0C9
:10063000FC01E854FF4F2491FC01EC55FF4F34912D
:10064000FC01E057FF4FE491EE2309F43CC0222364
:1006500039F1233091F038F42130A9F0223001F53E
:1006600084B58F7D12C0273091F02830A1F024305E
:10067000B9F4809180008F7D03C0809180008F77D6
:10068000809380000DC084B58F7784BD09C08091B0
:10069000B0008F7703C08091B0008F7D8093B00051
:1006A000F0E0EE0FFF1FEA57FF4FA591B4919FB7FF
:1006B000F894611104C08C913095382302C0EC91FC
:1006C0003E2B3C939FBF08951F920F920FB60F923F
:1006D00011242F933F938F939F93AF93BF93809158
:1006E000500290915102A0915202B0915302309168
:1006F0004F0223E0230F2D3720F40196A11DB11DD9
:1007000005C026E8230F0296A11DB11D20934F02BC
:100710008093500290935102A0935202B0935302DF
:1007200080914B0290914C02A0914D02B0914E02EB
:100730000196A11DB11D80934B0290934C02A09392
:100740004D02B0934E02BF91AF919F918F913F9117
:100750002F910F900FBE0F901F9018950F931F931E
:10076000CF93DF938C01FB01808191818F3F2FEF2D
:10077000920721F4E801AF81B8850EC0D801139625
:1007800012962D913C911397E90148815981841764
:10079000950710F0D901F4CF12968D919C91139783
:1007A00093838283EC01FD83EC83B583A48313964A
:1007B000FC93EE93129711870087F80180818F5F79
:1007C0008083DF91CF911F910F910895FC01738376
:1007D0006283918780874617570778F0421B530B37
:1007E0008485958548175907C8F4BF016E5F7F4F10
:1007F00080914401909145010DC04217530718F4B0
:100800006217730758F4BF016E5F7F4F80914601F6
:10081000909147010E94AE0380E0089581E0089521
:10082000E0916701F09168018081811103C08FEF31
:100830009FEF09C0E0916701F09168010580F681A2
:10084000E02D808191819093490180934801089522
:100850000FB6F8940F9280916201909163010F900E
:100860000FBE0895CF93DF939C01FB01DC0111962D
:10087000CD91DC911297D383C2838C819D81958326
:1008800084838C819D81DC0113967C936E931297F7
:100890007D836C8331872087F90180818F5F80831E
:1008A000DF91CF910895FC010396928381832FEF0E
:1008B0003FEF3483238396838583908787831082D9
:1008C0000895EF92FF920F931F93CF93DF93E091E0
:1008D0004601F09147018081882381F10580F681EE
:1008E000E02D00811181C681D7817E0182E0E80E72
:1008F000F11CC7010E94870BE889F989CE0109958F
:100900008A8982FFE4CF8C859D85800F911F08170F
:10091000190760F49B838A83D987C887B7018091C0
:100920004601909147010E94AE03D1CFB801CE019C
:100930000E9414108111CBCF0E94280180914401A4
:10094000909145019093470180934601F0934501B2
:10095000E0934401DF91CF911F910F91FF90EF90B1
:100960000895FF920F931F93CF93DF93EC01F62E20
:1009700000916201109163018091AA019091AB01F5
:1009800002960E94870BCF3F8FEFD80789F4FF2094
:1009900079F06091AA017091AB016E5F7F4F89E69B
:1009A00091E0DF91CF911F910F91FF900C94320451
:1009B000C00FD11FE091AA01F091AB01D383C28394
:1009C0006091AA017091AB01C017D10768F48091C2
:1009D0006501909166016E5F7F4FDF91CF911F910E
:1009E0000F91FF900C94AE03809167019091680184
:1009F0006E5F7F4F0E94AE03809148019091490144
:100A0000C817D90720F4D0934901C0934801DF915A
:100A1000CF911F910F91FF9008958091A901882394
:100A200031F080914A02882321F080E0089581E02E
:100A3000089582E00895FC01DB01892B11F40E94E6
:100A400028011097E1F30FB6F8940F9220916201FC
:100A5000309163018D919C9111978F3F4FEF9407D7
:100A600001F141815281609164017081761739F002
:100A70002417350720F01D921C9281E013C0241B1F
:100A8000350B28173907B8F7821B930B8D939C936E
:100A900080916401808380916201909163019283CF
:100AA000818380E00F900FBE08950F931F93CF9323
:100AB000DF93DC011596ED91FC911697C681D781E5
:100AC000209711F40E9428018E01045F1F4FC80176
:100AD0000E94870B80914A02811114C00A501109AB
:100AE000C8010E94870B8E899091A801981710F475
:100AF0008093A801B9E08B9FC0011124B8018C57E5
:100B00009E4F03C0B8018BE791E00E943204E09150
:100B1000AA01F091AB019E898689891720F481E0B2
:100B20008093430101C080E0DF91CF911F910F912D
:100B30000895CF93DF93EB01009711F40E942801F1
:100B40006091AA017091AB01645F7F4F0E94AE0378
:100B500061E0CE01DF91CF910C94B1047F928F922E
:100B60009F92AF92BF92CF92DF92EF92FF920F933C
:100B70001F93CF93DF9380914A02811102C00E949C
:100B800028010FB6F8940F9280914A028150809309
:100B90004A0280914A02882311F080E004C18091CA
:100BA000AC018823D1F3C0E0D0E029E0F22EEE249E
:100BB000E39480917B01882351F1E0918001F091D1
:100BC0008101C681D781CE010C960E94870B8E01D0
:100BD0000E5F1F4FC8010E94870B8E899091A8015C
:100BE000981710F48093A801F89EC0011124B80151
:100BF0008C579E4F0E943204E091AA01F091AB0104
:100C00009E8986899817A8F2E0924301D2CFCD2B16
:100C100011F00E941004E0904101F0904201E114B3
:100C2000F10409F4B8C089E0A82E77247394CC2489
:100C3000CA94DC2C80914A02811197C0C091620154
:100C4000D09163012196D0936301C09362012097F4
:100C5000F1F4E0916701F0916801808181118FCFFB
:100C60008091670190916801209165013091660142
:100C7000309368012093670190936601809365012A
:100C8000809164018F5F809364010E9410048091C1
:100C9000480190914901B12CC817D90708F451C0F7
:100CA000E0916701F09168018081811105C0D092C7
:100CB0004901C092480145C0E0916701F091680187
:100CC0000580F681E02D06811781D80112968D915D
:100CD0009C911397C817D90728F4909349018093E2
:100CE00048012FC04801B2E08B0E911CC4010E9444
:100CF000870BF80184899589892B21F0C8010C960E
:100D00000E94870BD80156968C919091A801981754
:100D100010F48093A801A89EC0011124B4018C573F
:100D20009E4F0E943204E091AA01F091AB01D801DC
:100D300056969C918689981708F4B2CFBB24B39439
:100D4000AFCFE091AA01F091AB01E689AE9EF00130
:100D50001124EC57FE4F8081823010F0BB24B394F5
:100D60008091430181110CC00AC080914101909192
:100D700042010196909342018093410103C0B1105A
:100D800070924301B1E0EB1AF10809F053CF1092D1
:100D900042011092410180914301882309F4FDCE64
:100DA0000E94AB0B81E00F900FBEDF91CF911F919E
:100DB0000F91FF90EF90DF90CF90BF90AF909F90FA
:100DC0008F907F90089580914A028F5F80934A02AE
:100DD0000895CF93DF93009751F0EC010E94E30652
:100DE000CE010E94D910DF91CF910C94AE05DF9116
:100DF000CF91089580913E01882309F10FB6F894B0
:100E00000F92E0917701F0917801C681D781CE01F0
:100E100002960E94870B8091AC0181508093AC01B7
:100E200080913E01815080933E010F900FBE8F89CB
:100E3000988D0E94E906CE010E94E906DBCF8091E1
:100E40008401823010F00E94AB0B0E94A102D2CF2D
:100E5000CF93DF93EC010E94E306CE010E94411084
:100E6000EC010E94AE05209771F40E9493002FEFD1
:100E700080E792E0215080409040E1F700C0000000
:100E80000E949100F4CFCE01DF91CF910895CF93CE
:100E9000DF93CDB7DEB72A970FB6F894DEBF0FBE4B
:100EA000CDBFE0914601F0914701F080FF2031F085
:100EB0000580F681E02D0081118102C000E010E084
:100EC0000E94E3060E9428046C0180913F019091EA
:100ED0004001C816D90620F40E94610481E001C0D7
:100EE00080E0D0924001C0923F0181117DC0FF207F
:100EF000C1F1C016D106E8F10E94AE05E0914601AD
:100F0000F09147010580F681E02DE680F780C7016A
:100F100002960E94870BD70152968C91529782FFBE
:100F200015C01C966D917C911D97600F711F9801E3
:100F3000A601C7010E94E603882359F0B801C70142
:100F40000E941410811105C00E9428018E7FF701B4
:100F5000828BD7015096ED91FC915197C70109956D
:100F600089C0E0914401F09145018081BB24B39494
:100F70008111B12CE0906001F09061010FB6F894FE
:100F80000F92F701858D8F3F09F4158ED7015E967C
:100F90008C915E978F3F11F45E961C920F900FBE5E
:100FA000F701828D811116C0C701419669F26091E7
:100FB000AA017091AB01645F7F4F0E943204B110AF
:100FC00004C0C8018C199D0902C08FEF9FEF6B2DE3
:100FD0000E94B104C7010E94420B0E94AE0581111C
:100FE00049C00E94AB0B46C00E94AE0543C00E94A0
:100FF0000D05882309F449C080E06801B1E1CB0EFA
:10100000D11C0FB6F8940F92F801F28CFF2009F46E
:10101000B1C0448D41113FC0FA94F801F28E808531
:10102000811153C00F900FBEF980F7FC23C00C81D3
:101030001D81D8011A968D919C911B97892B21F0C7
:10104000C80102960E94870B0E9428046C018091BF
:101050003F0190914001C816D90610F40E94610426
:10106000D0924001C0923F01EF2DFF0CFF0BEA3000
:10107000F105A8F100916001109161011A861986AD
:101080000115110509F0B3CF5FCF89859A85892BAA
:1010900009F05ACFB1CF50E086819781840F951F18
:1010A00097838683248135818217930720F080817E
:1010B000918197838683D80116966D917C911797BD
:1010C000CE0101960E948F11A7CFC80108960E94F9
:1010D0005505882309F4A6CF0E94AB0BA3CFEC5C87
:1010E000FF4FD80152968C910C9484118160F801C5
:1010F000828BEA80FB80648575856E0D7F1D97016C
:10110000A601C8010E94E603882309F4B3CFD801E1
:101110005096ED91FC915197C8010995F80182898B
:1011200082FFA8CF648575856E0D7F1DC8010E9462
:10113000141081119FCF08CF8160F801828B6A81E2
:101140007B81758764876115710509F4FDCE6C0D8F
:101150007D1D9601A601C8010E94E6038BCF81FD8B
:1011600004C0C8010E94E90685CF8E7FD80152963F
:101170008C9380CF29853A85232B19F40F900FBECD
:1011800090CE811109C0809164018E8380916201AB
:101190009091630198878F830F900FBE0E94E306A2
:1011A0000FB6F8940F92D8015D968C915D978F3FA2
:1011B00011F45D961C92F801868D8F3F09F4168E0E
:1011C0000F900FBEBE01675F7F4FCE0106960E9453
:1011D0001B0581111CC0C8010E94370B882389F0B0
:1011E00069857A85C6010E949905C8010E94420B53
:1011F0000E94AE05882311F081E003CF0E94AB0B63
:10120000FBCFC8010E94420B0E94AE05F5CFC8017A
:101210000E94420B0E94AE05C8010E94370B882332
:1012200059F33FCE0F920FB6F8940F921F921124EC
:101230002F923F924F925F926F927F928F929F92E6
:10124000AF92BF92CF92DF92EF92FF920F931F93D4
:101250002F933F934F935F936F937F938F939F93BE
:10126000AF93BF93CF93DF93EF93FF93A091AA0126
:10127000B091AB010DB60D920EB60D9213BE8091DA
:101280004A02811128C18091620190916301019607
:101290009093630180936201009709F063C0E0912D
:1012A0006701F09168012081222361F1F894259A69
:1012B0002D9A2FEF61EE74E0215060407040E1F70D
:1012C00000C000001D9A8FEF97EAA1E68150904080
:1012D000A040E1F700C000001D9ABFEFC1EED4E0CE
:1012E000B150C040D040E1F700C000001D9A2FEF80
:1012F00061EE74E0215060407040E1F700C00000F2
:101300001D9AD7CF20916701309168014091650106
:1013100050916601509368014093670130936601D4
:1013200020936501209164012F5F20936401E09177
:101330006701F09168012081211107C02FEF3FEF75
:1013400030934901209348010DC0E0916701F0916D
:1013500068010580F681E02D2081318130934901BB
:101360002093480120914801309149018217930749
:1013700008F49CC020E019E0E0916701F091680159
:101380003081311107C08FEF9FEF90934901809317
:1013900048018DC0E0916701F09168010580F681F8
:1013A000E02D0680F781E02D428153818417950757
:1013B00028F4509349014093480179C0AF014E5F32
:1013C0005F4FA285B38564817581E680F780EB016C
:1013D000FD82EC82C681D7817B836A8311966D91F1
:1013E0007C9112974617570721F41296DC93CE93FF
:1013F0001197138612863C9131503C933C91A489FD
:10140000B5891097F9F066857785E088F188EB015A
:10141000FD82EC82C089D1897B836A831196ED902D
:10142000FC901297BF01645F7F4FE616F70621F428
:101430001296DC93CE931197158A148A3C91315001
:101440003C933C91A6893091A8013A1710F4A093DF
:10145000A8011A9FD0011124BD016C577E4F7B015A
:10146000DB011196CD91DC911297D583C4836C81F9
:101470007D81778366836C817D81DB0113965C932C
:101480004E9312975D834C83F386E286E7013881A1
:101490003F5F3883A091AA01B091AB01468956966F
:1014A0003C91431708F468CF21E066CF20E0E0913B
:1014B000AA01F091AB01E689D9E0ED9FF00111247A
:1014C000EC57FE4F8081823008F021E0809143018B
:1014D00081110EC00AC08091410190914201019694
:1014E000909342018093410197C0222309F494C054
:1014F00080914A02882321F081E0809343018CC0CF
:1015000010924301A091AA01B091AB01E091AA0110
:10151000F091AB012D913C918789908D82179307B3
:10152000A8F08091AA019091AB018091AA019091BD
:10153000AB01259A2D9A2FEF67EA71E621506040A2
:101540007040E1F700C000001D9AF5CF8091A8011E
:1015500069E02FC081112CC0F894259A2D9A8FEF45
:1015600091EEA4E081509040A040E1F700C000005F
:101570001D9ABFEFC7EAD1E6B150C040D040E1F7B5
:1015800000C000001D9A2FEF61EE74E02150604012
:101590007040E1F700C000001D9A8FEF91EEA4E0CB
:1015A00081509040A040E1F700C000001D9AD7CFC5
:1015B0008150482F50E0649F9001659F300D1124A9
:1015C000F901EC57FE4F9081992321F2A181B2815C
:1015D00012960D90BC91A02DB283A18329573E4F46
:1015E000A217B30731F412962D913C9113973283D1
:1015F000218399E0949FF001959FF00D1124EC5701
:10160000FE4F0180F281E02D268137813093AB01BE
:101610002093AA018093A801A091AA01B091AB01E7
:10162000CD91CDBFDD91DEBFFF91EF91DF91CF91E5
:10163000BF91AF919F918F917F916F915F914F91EA
:101640003F912F911F910F91FF90EF90DF90CF90DE
:10165000BF90AF909F908F907F906F905F904F90D2
:101660003F902F901F900F900FBE0F9008950FB6D0
:10167000F8940F92FC01928D0F900FBE81E09111B2
:1016800080E00895EF92FF920F931F93CF93DF9323
:10169000EC010FB6F8940F921E8D7C0181E1E80EEB
:1016A000F11C01E011165CF48989882341F0C7011F
:1016B0000E9455058111009343011150F3CF8FEF24
:1016C0008E8F0F900FBE0FB6F8940F921D8D7E0176
:1016D00088E0E80EF11C01E011165CF4888588238F
:1016E00041F0C7010E94550581110093430111503B
:1016F000F3CF8FEF8D8F0F900FBEDF91CF911F91A2
:101700000F91FF90EF9008950E9412091895CF93C2
:10171000DF93FC01A085B18582819381248135818D
:10172000EC013D832C83C481D5819B838A831196F0
:101730008D919C911297E817F90721F41296DC938A
:10174000CE931197118610868C9181508C938C9139
:10175000DF91CF9108950F920FB6F8940F921F92D8
:1017600011242F923F924F925F926F927F928F92AD
:101770009F92AF92BF92CF92DF92EF92FF920F9320
:101780001F932F933F934F935F936F937F938F9309
:101790009F93AF93BF93CF93DF93EF93FF93A0916A
:1017A000AA01B091AB010DB60D920EB60D928091CB
:1017B0004A02882321F081E0809343018CC010927B
:1017C0004301A091AA01B091AB01E091AA01F0916F
:1017D000AB012D913C918789908D82179307A8F0DA
:1017E0008091AA019091AB018091AA019091AB01E7
:1017F000259A2D9A2FEF87EA91E62150804090405C
:10180000E1F700C000001D9AF5CF8091A80169E0C2
:101810002FC081112CC0F894259A2D9A2FEF81EEBC
:1018200094E0215080409040E1F700C000001D9AF4
:101830002FEF87EA91E6215080409040E1F700C009
:1018400000001D9A2FEF81EE94E0215080409040DF
:10185000E1F700C000001D9A2FEF81EE94E02150C7
:1018600080409040E1F700C000001D9AD7CF815022
:10187000482F50E0649F9001659F300D1124F901BD
:10188000EC57FE4F9081992321F2A181B2811296EB
:101890000D90BC91A02DB283A18329573E4FA21772
:1018A000B30731F412962D913C9113973283218323
:1018B00099E0949FF001959FF00D1124EC57FE4F95
:1018C0000180F281E02D268137813093AB01209396
:1018D000AA018093A801A091AA01B091AB01CD917A
:1018E000CDBFDD91DEBFFF91EF91DF91CF91BF9131
:1018F000AF919F918F917F916F915F914F913F91A8
:101900002F911F910F91FF90EF90DF90CF90BF909C
:10191000AF909F908F907F906F905F904F903F908F
:101920002F901F900F900FBE0F900895789484B55C
:10193000826084BD84B5816084BD85B5826085BDCB
:1019400085B5816085BD80916E00816080936E0059
:10195000109281008091810082608093810080914B
:1019600081008160809381008091800081608093FC
:1019700080008091B10084608093B1008091B000BC
:1019800081608093B00080917A00846080937A00B7
:1019900080917A00826080937A0080917A008160E1
:1019A00080937A0080917A00806880937A00109208
:1019B000C10020910401309105018FEF98E0821B56
:1019C000930B90930101809300010E9458010EE552
:1019D00011E020E040EC50E06DE271E08AEF96E02B
:1019E0000E94000F813009F0B8C00FB6F8940F9232
:1019F0008091600190916101892B09F050C083E5CD
:101A000091E00E9453048AE491E00E94530483E52C
:101A100091E090934701809346018AE491E090938E
:101A200045018093440181E590E00E942807EC0184
:101A3000009789F14F96998388838AE08B8F85E0A0
:101A40008C8F0FB6F8940F92488159818B8D6C8DD5
:101A50009A01869F200D311D11243D832C831A8EFF
:101A60005B834A8390E00197689F9001699F300DE6
:101A70001124CA01820F931F9F838E838FEF8D8F56
:101A80008E8FCE0108960E945304CE0141960E948B
:101A900053040F900FBED0936101C09360010F906B
:101AA0000FBE8091600190916101892B69F00CE576
:101AB00011E023E045E550E062E371E087E497E060
:101AC0000E94000F811102C00E942801813009F09C
:101AD00044C0F8942FEF3FEF309349012093480121
:101AE0008093A9011092630110926201A89590EC75
:101AF00088E10FB6F894A895809360000FBE90938C
:101B00006000A091AA01B091AB01CD91CDBFDD9154
:101B1000DEBFFF91EF91DF91CF91BF91AF919F9188
:101B20008F917F916F915F914F913F912F911F9175
:101B30000F91FF90EF90DF90CF90BF90AF909F906C
:101B40008F907F906F905F904F903F902F901F905D
:101B50000F900FBE0F90089503C08F3F09F4B4CFCC
:101B60000E9458010E94A102FDCFEDEAF1E013822C
:101B7000128288EE93E0A0E0B0E084839583A68390
:101B8000B7838AE091E09183808385EC90E095872C
:101B9000848784EC90E09787868780EC90E0918B37
:101BA000808B81EC90E0938B828B82EC90E0958B24
:101BB000848B86EC90E0978B868B118E128E138E21
:101BC000148E0895AF92BF92DF92EF92FF920F931F
:101BD0001F93CF93DF9300D000D01F92CDB7DEB715
:101BE0008C017B011D821C82009711F40E94280148
:101BF000672B21F4FC01848D8111F8CF0E940D0523
:101C0000811104C08C819D81892B81F780E058016E
:101C1000F8E0AF0EB11C0FB6F8940F92F801228DC8
:101C2000938D291708F075C0D28C448D411147C09F
:101C300080819181892B09F05AC0F80184819581B6
:101C4000009711F480E037C0E090AA01F090AB015A
:101C5000E816F90659F6F70182A1882339F2815076
:101C600082A3268991A1291769F38111EBCF57012E
:101C7000F2E0AF0EB11CC5010E94870BF70181A1F4
:101C8000868B482F50E024E030E0241B350B35874D
:101C900024879091A801981710F48093A80129E057
:101CA000249FC001259F900D1124B5018C579E4F94
:101CB0000E94320481E0F8011582148219C050E0BC
:101CC000B701F801828193810E948F11F801248D60
:101CD00082819381820F911D938382832481358138
:101CE0008217930720F0808191819383828380E023
:101CF000D394F801D28E9189992321F0C80141969D
:101D00000E94550581110E94AB0B0F900FBE81E020
:101D100055C02C813D81232B19F40F900FBE4DC06F
:101D2000811109C080916401898380916201909141
:101D300063019B838A830F900FBE0E94E3060FB658
:101D4000F8940F92F801858D8F3F09F4158EF801F4
:101D5000868D8F3F09F4168E0F900FBEBE016C5F0B
:101D60007F4FCE0101960E941B05811121C00FB645
:101D7000F8940F92F801928D838D0F900FBE9813F7
:101D800011C06C817D81C5010E949905C8010E9426
:101D9000420B0E94AE05882311F081E03CCF0E94E7
:101DA000AB0BFBCFC8010E94420B0E94AE05F5CFE2
:101DB000C8010E94420B0E94AE0580E00F900F9078
:101DC0000F900F900F90DF91CF911F910F91FF9087
:101DD000EF90DF90BF90AF90089580914A028111FB
:101DE0000E9428010E94E30660E08FE090E00E94DC
:101DF000B1040E94AE05811102C00E94AB0B089590
:101E00007F928F929F92AF92BF92CF92DF92EF928A
:101E1000FF920F931F93CF93DF93782EA92E6B0120
:101E20007A01B22ECA010E9428074C01892B09F4BD
:101E3000ECC088E290E00E942807EC01892BC1F0F9
:101E4000988E8F8AA70165EA70E0C4010E949811FC
:101E500021E0E21AF108EF89F88DEE0DFF1DC114A3
:101E6000D104D1F0CE0149969601285F3F4F07C0BB
:101E7000C4010E94E906C9C0C216D30659F0A601E2
:101E8000D6016D916D01DC016D93CD01DA014C91AC
:101E90004111F2CF18A201C0198E8B2D843008F0A9
:101EA00083E08E8B89A31AA21B861A861D8A1C8A40
:101EB000D987C88724E030E0A901481B51095D8714
:101EC0004C87DB8BCA8B84E09E012D5D3F4FD9018F
:101ED0001D928A95E9F71FA27082DF011197AC92DB
:101EE00011971C92119780E88C9311971C92579729
:101EF0001C9211971C92B397F983E8830115110581
:101F000019F0F801D183C0830FB6F8940F92809135
:101F1000AC018F5F8093AC018091AA019091AB01DD
:101F2000892BD1F5D093AB01C093AA018091AC016C
:101F3000813009F041C084E891E00E9453048DE8AB
:101F400091E00E94530486E991E00E9453048FE9D6
:101F500091E00E9453048DE592E00E94530484E5D1
:101F600092E00E9453048BE791E00E94530482E7C1
:101F700091E00E94530489E691E00E9453048DE5AC
:101F800092E0909368018093670184E592E09093DA
:101F900066018093650110C08091A90181110CC078
:101FA000E091AA01F091AB0196898E89891720F002
:101FB000D093AB01C093AA01809166028F5F80939A
:101FC00066028E899091A801981710F48093A80159
:101FD000F9E08F9FC0011124BE016E5F7F4F8C57C7
:101FE0009E4F0E9432040F900FBE8091A90188235A
:101FF00051F0E091AA01F091AB0196898E89981772
:1020000010F40E94AB0B81E001C08FEFDF91CF9104
:102010001F910F91FF90EF90DF90CF90BF90AF9006
:102020009F908F907F9008950F931F93CF93DF938E
:1020300000D000D01F92CDB7DEB7009711F40E94F8
:10204000280100916001109161010115110571F0E5
:1020500019827B836A839D838C830E940D05BE0158
:102060006F5F7F4FC8010E94E20D01C080E00F90BA
:102070000F900F900F900F90DF91CF911F910F91C4
:1020800008950F931F93CF93DF938230910510F43F
:1020900082E090E0E0916902F0916A0220E030E095
:1020A000A0E0B0E0309719F14081518102811381A5
:1020B00048175907C8F08417950769F4109731F04D
:1020C00012960C93129713961C9327C000936902E3
:1020D00010936A0222C02115310519F042175307E7
:1020E00018F49A01BD01EF01DF01F801DBCF2115E2
:1020F0003105F9F0281B390B2430310580F48A8131
:102100009B816115710521F0FB019383828304C0DB
:1021100090936A0280936902FE01329644C0FE01E8
:10212000E20FF31F81939193225031093983288361
:102130003AC02091670230916802232B41F420912C
:1021400002013091030130936802209367022091CD
:102150000001309101012115310541F42DB73EB741
:102160004091040150910501241B350BE091670259
:10217000F0916802E217F307A0F42E1B3F0B28171B
:10218000390778F0AC014E5F5F4F2417350748F0F0
:102190004E0F5F1F509368024093670281939193A3
:1021A00002C0E0E0F0E0CF01DF91CF911F910F91ED
:1021B0000895CF93DF93009709F481C0FC01329713
:1021C00013821282A0916902B0916A02109781F481
:1021D00020813181820F931F209167023091680224
:1021E0002817390751F5F0936802E093670267C03A
:1021F000ED0120E030E0CE17DF0740F44A815B813B
:102200009E0141155105F1F0EA01F5CFD383C28358
:1022100040815181840F951FC817D90759F48881CF
:102220009981840F951F0296918380838A819B8177
:10223000938382832115310529F4F0936A02E09398
:1022400069023DC0E901FB83EA8349915991C40FBA
:10225000D51FEC17FD0761F480819181840F951FD4
:102260000296E90199838883828193819B838A8383
:10227000E0E0F0E012968D919C911397009719F091
:10228000FD01DC01F7CF8D919C9111979D012E5F8F
:102290003F4F820F931F20916702309168022817E9
:1022A000390769F4309729F410926A021092690292
:1022B00002C013821282B0936802A0936702DF917A
:1022C000CF910895A1E21A2EAA1BBB1BFD010DC0E0
:1022D000AA1FBB1FEE1FFF1FA217B307E407F507D6
:1022E00020F0A21BB30BE40BF50B661F771F881FB2
:1022F000991F1A9469F760957095809590959B0148
:10230000AC01BD01CF010895EE0FFF1F0590F491C0
:10231000E02D099481E090E0F8940C949F11FB016A
:10232000DC0102C001900D9241505040D8F7089551
:10233000DC0101C06D9341505040E0F70895F894DE
:02234000FFCFCD
:1023420000006B0220000000000032029B01C90164
:102352007F02FA01D801EC010D0A00426C696E6B32
:102362000052656164416E616C6F67310049444C93
:0A2372004500546D7220537663009D
:00000001FF
