:100000000C946C000C9494000C9494000C94940048
:100010000C9494000C9494000C9430070C9494006D
:100020000C9494000C9494000C9494000C94940000
:100030000C9494000C9494000C9494000C949400F0
:100040000C94A8010C9494000C9418020C94F201E6
:100050000C9494000C9494000C9494000C949400D0
:100060000C9494000C949400560E560E560E950E59
:100070007C0E8F0E560E560E950E7C0E0000000064
:1000800023002600290000000000240027002A0089
:1000900000000000250028002B00040404040404D0
:1000A0000404020202020202030303030303010227
:1000B00004081020408001020408102001020408F6
:1000C00010200000000800020100000304070000E7
:1000D0000000000000003D0911241FBECFEFD8E052
:1000E000DEBFCDBF11E0A0E0B1E0E2E6F5E202C084
:1000F00005900D92AC35B107D9F722E0ACE5B1E03F
:1001000001C01D92AD38B207E1F710E0CCE6D0E0B7
:1001100004C02197FE010E949412CB36D107C9F783
:100120000E941E080C94AF120C940000CF92DF9234
:10013000EF92FF920F931F93CF93DF936C017A019D
:100140008B01C0E0D0E0CE15DF0581F0D8016D91C4
:100150008D01D601ED91FC910190F081E02DC60159
:100160000995892B11F02196EECF7E01C701DF9111
:10017000CF911F910F91FF90EF90DF90CF90089556
:10018000089580E090E00895FC01538D448D252F63
:1001900030E0842F90E0821B930B541710F0CF9621
:1001A000089501970895FC01918D828D981761F053
:1001B000828DDF01A80FB11D5D968C91928D9F5F9E
:1001C0009F73928F90E008958FEF9FEF0895FC0149
:1001D000918D828D981731F0828DE80FF11D858DFC
:1001E00090E008958FEF9FEF0895FC01918D228D8F
:1001F000892F90E0805C9F4F821B91098F73992714
:10020000089588ED91E00E94F50021E0892B09F422
:1002100020E0822F0895FC01848DDF01A80FB11D1D
:10022000A35ABF4F2C91848D90E001968F7399272C
:10023000848FA689B7892C93A089B1898C9183700A
:1002400080648C93938D848D981306C00288F38903
:10025000E02D80818F7D80830895EF92FF920F9330
:100260001F93CF93DF93EC0181E0888F9B8D8C8D62
:10027000981305C0E889F989808185FD26C0F62E8E
:100280000B8D10E00F5F1F4F0F731127E02E8C8D29
:10029000E8120CC00FB607FCFACFE889F989808113
:1002A00085FFF5CFCE010E940B01F1CF8B8DFE01B2
:1002B000E80FF11DE35AFF4FF0829FB7F8940B8FC0
:1002C000EA89FB89808180620AC09FB7F894EE8931
:1002D000FF896083E889F9898081837080648083E5
:1002E0009FBF81E090E0DF91CF911F910F91FF9030
:1002F000EF900895CF93DF93EC01888D8823C9F0A8
:10030000EA89FB89808185FD05C0A889B9898C911E
:1003100086FD0FC00FB607FCF5CF808185FFF2CFB9
:10032000A889B9898C9185FFEDCFCE010E940B0180
:10033000E7CFDF91CF91089580E090E0892B29F0FD
:100340000E94010181110C94000008950E949A12EC
:100350001F920F920FB60F9211242F933F938F93FA
:100360009F93AF93BF938091800190918101A09161
:100370008201B091830130917F0123E0230F2D375B
:1003800020F40196A11DB11D05C026E8230F029699
:10039000A11DB11D20937F01809380019093810165
:1003A000A0938201B093830180917B0190917C01A5
:1003B000A0917D01B0917E010196A11DB11D809398
:1003C0007B0190937C01A0937D01B0937E01BF914E
:1003D000AF919F918F913F912F910F900FBE0F90F2
:1003E0001F9018951F920F920FB60F9211242F9302
:1003F0003F934F935F936F937F938F939F93AF93AD
:10040000BF93EF93FF9388ED91E00E940B01FF9162
:10041000EF91BF91AF919F918F917F916F915F917C
:100420004F913F912F910F900FBE0F901F901895F5
:100430001F920F920FB60F9211242F938F939F93B9
:10044000EF93FF93E091E801F091E9018081E09161
:10045000EE01F091EF0182FD12C090818091F101D7
:100460008F5F8F732091F201821751F0E091F101BB
:10047000F0E0E852FE4F958F8093F10101C080813A
:10048000FF91EF919F918F912F910F900FBE0F9041
:100490001F9018951D9A0895259A2D9A089561E048
:1004A0008DE00E94260461E08DE00E94D9030E9445
:1004B000FD0F60E08DE00E94D9030E94FD0FF3CF95
:1004C0008FE00E9462040E945D03FACF61E08AE03F
:1004D0000E94260460E08BE00E942604C3E0D0E086
:1004E00093E2E92EF12C29EBC22E20E0D22E35EA40
:1004F000A32E30E0B32E60E08AE00E94D903CE0143
:100500000197F1F761E08AE00E94D903C7010197E2
:10051000F1F760E08AE00E94D903F6016491F501E9
:100520008491E82FF0E0EE0FFF1FE458FF4F859114
:10053000949100E412E42FE030E0462F0E94790409
:10054000611571058105910551F0DC01CB01019622
:10055000A11DB11D2C013D01FFE07F2203C0412CF4
:10056000512C320185E291E00E944B038FE291E031
:100570000E944B03C2010E945D0382E391E00E944E
:100580004B038FE291E00E944B0380E090E00E94D9
:100590005D0380E10E9462040E945D03ACCFF89489
:1005A0000E944C022FEF81EE94E021508040904059
:1005B000E1F700C000000E944A022FEF87EA91E6AF
:1005C000215080409040E1F700C000000E944A02A4
:1005D0002FEF81EE94E0215080409040E1F700C081
:1005E00000000E944A022FEF81EE94E021508040EB
:1005F0009040E1F700C000000E944A02D3CF0F9361
:100600001F9306E811E020E040E850E060E471E06C
:100610008FE492E00E94101021E040E850E066E490
:1006200071E080E692E00E94101023E040E850E084
:1006300062E571E086E692E00E941010E8EDF1E0DC
:10064000A089B18982E08C93A485B5851C92A6858A
:10065000B7858FEC8C93108EA489B58986E08C9336
:10066000A289B3898C9180618C93A289B3898C9182
:1006700088608C93A289B3898C9180688C9302885E
:10068000F389E02D80818F7D808361E08AE01F9176
:100690000F910C94D903009769F0FC0101900020A0
:1006A000E9F73197AF01481B590BBC0188ED91E088
:1006B0000C94960080E090E008958F929F92AF9204
:1006C000BF92CF92DF92EF92FF920F931F93CF933F
:1006D000DF93CDB7DEB7A1970FB6F894DEBF0FBE9C
:1006E000CDBF6C01990FEE08FF08F7FE2BC06DE23D
:1006F00088ED91E00E942D018C0122273327A9016A
:100700002C193D094E095F0919A2CE0181967C0181
:100710009AE0892E912CA12CB12CCA01B901A50116
:1007200094010E947212605DF70162937F012115AE
:1007300031054105510589F7CF010E944B03080F90
:10074000191F1EC0A701960119A28E010F5D1F4F30
:100750008AE0C82ED12CE12CF12CCA01B901A701E5
:1007600096010E947212605DF80162938F0121155B
:1007700031054105510589F7CF010E944B038C01DA
:100780008FE291E00E944B03800F911FA1960FB65C
:10079000F894DEBF0FBECDBFDF91CF911F910F91B7
:1007A000FF90EF90DF90CF90BF90AF909F908F9091
:1007B000089590E0FC01EE53FF4F2491FC01E255B7
:1007C000FF4F3491FC01E656FF4FE491EE2309F40C
:1007D0003CC0222339F1233091F038F42130A9F0C4
:1007E000223001F584B58F7D12C0273091F028307A
:1007F000A1F02430B9F4809180008F7D03C08091F6
:1008000080008F77809380000DC084B58F7784BD82
:1008100009C08091B0008F7703C08091B0008F7DB8
:100820008093B000F0E0EE0FFF1FE057FF4FA5915F
:10083000B4919FB7F894611104C08C91309538231E
:1008400002C0EC913E2B3C939FBF0895CF93DF9362
:1008500090E0FC01E255FF4F2491FC01E656FF4F6A
:100860008491882361F190E0880F991FFC01EA5779
:10087000FF4FC591D491FC01E057FF4FA591B49172
:10088000611109C09FB7F8948881209582238883DD
:10089000EC912E230BC0623061F49FB7F8948881ED
:1008A000322F309583238883EC912E2B2C939FBF7E
:1008B00006C08FB7F894E8812E2B28838FBFDF9175
:1008C000CF9108958E3008F08E50877080648093A9
:1008D0007C0080917A00806480937A0080917A0015
:1008E00086FDFCCF809178002091790090E0922BDA
:1008F0000895CF92DF92EF92FF920F931F93E82F0C
:10090000F92F05C0015011092109310961F19081C8
:1009100096239417B9F305C0015011092109310933
:1009200011F1908196239413F7CFC12CD12CE12C97
:10093000F12C0AC08FEFC81AD80AE80AF80A0C1579
:100940001D052E053F0579F080818623841791F3DC
:100950006C2D7D2D8E2D9F2D1F910F91FF90EF906F
:10096000DF90CF90089560E070E080E090E01F910C
:100970000F91FF90EF90DF90CF9008950F920FB6F8
:10098000F8940F921F9211242F923F924F925F92F0
:100990006F927F928F929F92AF92BF92CF92DF928F
:1009A000EF92FF920F931F932F933F934F935F9379
:1009B0006F937F938F939F93AF93BF93CF93DF9367
:1009C000EF93FF93A091D501B091D6010DB60D9292
:1009D0000EB60D9213BE80917502811128C18091CF
:1009E0008D0190918E01019690938E0180938D01DF
:1009F000009709F063C0E0919201F091930120818A
:100A0000222361F1F894259A2D9A2FEF61EE74E07C
:100A1000215060407040E1F700C000001D9A8FEF48
:100A200097EAA1E681509040A040E1F700C00000A5
:100A30001D9ABFEFC1EED4E0B150C040D040E1F705
:100A400000C000001D9A2FEF61EE74E0215060405D
:100A50007040E1F700C000001D9AD7CF20919201AD
:100A600030919301409190015091910150939301E5
:100A700040939201309391012093900120918F0136
:100A80002F5F20938F01E0919201F09193012081DB
:100A9000211107C02FEF3FEF3093640120936301D2
:100AA0000DC0E0919201F09193010580F681E02D57
:100AB000208131813093640120936301209163018F
:100AC000309164018217930708F49CC020E019E07C
:100AD000E0919201F09193013081311107C08FEFC5
:100AE0009FEF90936401809363018DC0E091920128
:100AF000F09193010580F681E02D0680F781E02DCD
:100B0000428153818417950728F4509364014093E0
:100B1000630179C0AF014E5F5F4FA285B3856481E9
:100B20007581E680F780EB01FD82EC82C681D7817A
:100B30007B836A8311966D917C91129746175707B4
:100B400021F41296DC93CE931197138612863C9172
:100B500031503C933C91A489B5891097F9F0668592
:100B60007785E088F188EB01FD82EC82C089D1892C
:100B70007B836A831196ED90FC901297BF01645FAE
:100B80007F4FE616F70621F41296DC93CE93119769
:100B9000158A148A3C9131503C933C91A68930913E
:100BA000D3013A1710F4A093D3011A9FD001112456
:100BB000BD0161557E4F7B01DB011196CD91DC912A
:100BC0001297D583C4836C817D81778366836C8122
:100BD0007D81DB0113965C934E9312975D834C836A
:100BE000F386E286E70138813F5F3883A091D50123
:100BF000B091D601468956963C91431708F468CFC8
:100C000021E066CF20E0E091D501F091D601E689A0
:100C1000D9E0ED9FF0011124E155FE4F8081823033
:100C200008F021E080915E0181110EC00AC0809120
:100C30005C0190915D01019690935D0180935C0150
:100C400097C0222309F494C080917502882321F073
:100C500081E080935E018CC010925E01A091D5016D
:100C6000B091D601E091D501F091D6012D913C9142
:100C70008789908D82179307A8F08091D501909174
:100C8000D6018091D5019091D601259A2D9A2FEF0A
:100C900067EA71E6215060407040E1F700C0000053
:100CA0001D9AF5CF8091D30169E02FC081112CC02E
:100CB000F894259A2D9A8FEF91EEA4E08150904000
:100CC000A040E1F700C000001D9ABFEFC7EAD1E6DF
:100CD000B150C040D040E1F700C000001D9A2FEF96
:100CE00061EE74E0215060407040E1F700C0000008
:100CF0001D9A8FEF91EEA4E081509040A040E1F763
:100D000000C000001D9AD7CF8150482F50E0649F4B
:100D10009001659F300D1124F901E155FE4F90813E
:100D2000992321F2A181B28112960D90BC91A02D40
:100D3000B283A1832E543E4FA217B30731F412960B
:100D40002D913C9113973283218399E0949FF00178
:100D5000959FF00D1124E155FE4F0180F281E02DA9
:100D6000268137813093D6012093D5018093D3011A
:100D7000A091D501B091D601CD91CDBFDD91DEBF5F
:100D8000FF91EF91DF91CF91BF91AF919F918F91A3
:100D90007F916F915F914F913F912F911F910F9193
:100DA000FF90EF90DF90CF90BF90AF909F908F908B
:100DB0007F906F905F904F903F902F901F900F907B
:100DC0000FBE0F9008950FB6F8940F92FC01928D0C
:100DD0000F900FBE81E0911180E00895EF92FF9295
:100DE0000F931F93CF93DF93EC010FB6F8940F92FC
:100DF0001E8D7C0181E1E80EF11C01E011165CF40E
:100E00008989882341F0C7010E94350B8111009325
:100E10005E011150F3CF8FEF8E8F0F900FBE0FB684
:100E2000F8940F921D8D7E0188E0E80EF11C01E020
:100E300011165CF48885882341F0C7010E94350BA8
:100E4000811100935E011150F3CF8FEF8D8F0F90C2
:100E50000FBEDF91CF911F910F91FF90EF900895FA
:100E60000E94BE0418950F920FB6F8940F921F922D
:100E700011242F923F924F925F926F927F928F92A6
:100E80009F92AF92BF92CF92DF92EF92FF920F9319
:100E90001F932F933F934F935F936F937F938F9302
:100EA0009F93AF93BF93CF93DF93EF93FF93A09163
:100EB000D501B091D6010DB60D920EB60D9280916E
:100EC0007502882321F081E080935E018CC010922E
:100ED0005E01A091D501B091D601E091D501F091CC
:100EE000D6012D913C918789908D82179307A8F0A8
:100EF0008091D5019091D6018091D5019091D60134
:100F0000259A2D9A2FEF87EA91E621508040904054
:100F1000E1F700C000001D9AF5CF8091D30169E090
:100F20002FC081112CC0F894259A2D9A2FEF81EEB5
:100F300094E0215080409040E1F700C000001D9AED
:100F40002FEF87EA91E6215080409040E1F700C002
:100F500000001D9A2FEF81EE94E0215080409040D8
:100F6000E1F700C000001D9A2FEF81EE94E02150C0
:100F700080409040E1F700C000001D9AD7CF81501B
:100F8000482F50E0649F9001659F300D1124F901B6
:100F9000E155FE4F9081992321F2A181B2811296F1
:100FA0000D90BC91A02DB283A1832E543E4FA21769
:100FB000B30731F412962D913C911397328321831C
:100FC00099E0949FF001959FF00D1124E155FE4F9B
:100FD0000180F281E02D268137813093D601209364
:100FE000D5018093D301A091D501B091D601CD91C7
:100FF000CDBFDD91DEBFFF91EF91DF91CF91BF912A
:10100000AF919F918F917F916F915F914F913F91A0
:101010002F911F910F91FF90EF90DF90CF90BF9095
:10102000AF909F908F907F906F905F904F903F9088
:101030002F901F900F900FBE0F900895789484B555
:10104000826084BD84B5816084BD85B5826085BDC4
:1010500085B5816085BD80916E00816080936E0052
:101060001092810080918100826080938100809144
:1010700081008160809381008091800081608093F5
:1010800080008091B10084608093B1008091B000B5
:1010900081608093B00080917A00846080937A00B0
:1010A00080917A00826080937A0080917A008160DA
:1010B00080937A0080917A00806880937A00109201
:1010C000C10020910401309105018FEF98E0821B4F
:1010D000930B90930101809300010E94FF0209E7A6
:1010E00011E020E040EC50E068E171E08AED9CE026
:1010F0000E941010813009F0B8C00FB6F8940F921A
:1011000080918B0190918C01892B09F050C08EE663
:1011100091E00E94330A85E691E00E94330A8EE650
:1011200091E0909362018093610185E691E0909354
:10113000600180935F0181E590E00E94080DEC0161
:10114000009789F14F96998388838AE08B8F85E099
:101150008C8F0FB6F8940F92488159818B8D6C8DCE
:101160009A01869F200D311D11243D832C831A8EF8
:101170005B834A8390E00197689F9001699F300DDF
:101180001124CA01820F931F9F838E838FEF8D8F4F
:101190008E8FCE0108960E94330ACE0141960E949E
:1011A000330A0F900FBED0938C01C0938B010F9028
:1011B0000FBE80918B0190918C01892B69F007E71C
:1011C00011E023E045E550E06DE171E087E29DE04C
:1011D0000E941010811102C00E94CF02813009F0DC
:1011E00044C0F8942FEF3FEF3093640120936301E4
:1011F0008093D40110928E0110928D01A89590ECED
:1012000088E10FB6F894A895809360000FBE909384
:101210006000A091D501B091D601CD91CDBFDD91F7
:10122000DEBFFF91EF91DF91CF91BF91AF919F9181
:101230008F917F916F915F914F913F912F911F916E
:101240000F91FF90EF90DF90CF90BF90AF909F9065
:101250008F907F906F905F904F903F902F901F9056
:101260000F900FBE0F90089503C08F3F09F4B4CFC5
:101270000E94FF020E949C01FDCFE8EDF1E0138285
:10128000128288EE93E0A0E0B0E084839583A68389
:10129000B7838AE091E09183808385EC90E0958725
:1012A000848784EC90E09787868780EC90E0918B30
:1012B000808B81EC90E0938B828B82EC90E0958B1D
:1012C000848B86EC90E0978B868B118E128E138E1A
:1012D000148E08950F931F93CF93DF938C01FB011E
:1012E000808191818F3F2FEF920721F4E801AF8138
:1012F000B8850EC0D801139612962D913C91139784
:10130000E901488159818417950710F0D901F4CF7C
:1013100012968D919C91139793838283EC01FD83A8
:10132000EC83B583A4831396FC93EE9312971187F5
:101330000087F80180818F5F8083DF91CF911F91BB
:101340000F910895FC01738362839187808746170C
:10135000570778F0421B530B84859585481759072A
:10136000C8F4BF016E5F7F4F80915F019091600173
:101370000DC04217530718F46217730758F4BF01E2
:101380006E5F7F4F80916101909162010E946A09B6
:1013900080E0089581E00895E0919201F091930139
:1013A0008081811103C08FEF9FEF09C0E09192010E
:1013B000F09193010580F681E02D808191819093D9
:1013C00064018093630108950FB6F8940F928091A1
:1013D0008D0190918E010F900FBE0895CF93DF93F2
:1013E000FC01A085B1858281938124813581EC0146
:1013F0003D832C83C481D5819B838A8311968D91F3
:101400009C911297E817F90721F41296DC93CE937A
:101410001197118610868C9181508C938C91DF915D
:10142000CF910895CF93DF939C01FB01DC011196CE
:10143000CD91DC911297D383C2838C819D8195835A
:1014400084838C819D81DC0113967C936E9312972B
:101450007D836C8331872087F90180818F5F808352
:10146000DF91CF910895FC010396928381832FEF42
:101470003FEF34832383968385839087878310820D
:101480000895EF92FF920F931F93CF93DF93E09114
:101490006101F09162018081882381F10580F681EC
:1014A000E02D00811181C681D7817E0182E0E80EA6
:1014B000F11CC7010E94EE09E889F989CE0109955E
:1014C0008A8982FFE4CF8C859D85800F911F081744
:1014D000190760F49B838A83D987C887B7018091F5
:1014E0006101909162010E946A09D1CFB801CE01D9
:1014F0000E9424118111CBCF0E94CF0280915F0105
:10150000909160019093620180936101F09360017A
:10151000E0935F01DF91CF911F910F91FF90EF90CA
:101520000895FF920F931F93CF93DF93EC01F62E54
:1015300000918D0110918E018091D5019091D6017D
:1015400002960E94EE09CF3F8FEFD80789F4FF2063
:1015500079F06091D5017091D6016E5F7F4F84E97B
:1015600091E0DF91CF911F910F91FF900C94120A9F
:10157000C00FD11FE091D501F091D601D383C28372
:101580006091D5017091D601C017D10768F48091A0
:101590009001909191016E5F7F4FDF91CF911F91EC
:1015A0000F91FF900C946A098091920190919301A0
:1015B0006E5F7F4F0E946A09809163019091640180
:1015C000C817D90720F4D0936401C0936301DF9159
:1015D000CF911F910F91FF9008958091D40188239E
:1015E00031F080917502882321F080E0089581E038
:1015F000089582E00895FC01DB01892B11F40E941B
:10160000CF021097E1F30FB6F8940F9220918D015D
:1016100030918E018D919C9111978F3F4FEF9407E0
:1016200001F14181528160918F017081761739F00B
:101630002417350720F01D921C9281E013C0241B53
:10164000350B28173907B8F7821B930B8D939C93A2
:1016500080918F01808380918D0190918E01928382
:10166000818380E00F900FBE08950F931F93CF9357
:10167000DF93DC011596ED91FC911697C681D78119
:10168000209711F40E94CF028E01045F1F4FC80102
:101690000E94EE0980917502811114C00A5011094F
:1016A000C8010E94EE098E899091D301981710F419
:1016B0008093D301B9E08B9FC0011124B8018155FB
:1016C0009E4F03C0B80186EA91E00E94120AE091A1
:1016D000D501F091D6019E898689891720F481E091
:1016E00080935E0101C080E0DF91CF911F910F9147
:1016F0000895CF93DF93EB01009711F40E94CF027E
:101700006091D5017091D601645F7F4F0E946A0994
:1017100061E0CE01DF91CF910C94910A7F928F927C
:101720009F92AF92BF92CF92DF92EF92FF920F9370
:101730001F93CF93DF9380917502811102C00E94A5
:10174000CF020FB6F8940F9280917502815080936A
:10175000750280917502882311F080E004C18091A8
:10176000D7018823D1F3C0E0D0E029E0F22EEE24A7
:10177000E3948091A601882351F1E091AB01F091AF
:10178000AC01C681D781CE010C960E94EE098E0174
:101790000E5F1F4FC8010E94EE098E899091D30100
:1017A000981710F48093D301F89EC0011124B8015A
:1017B00081559E4F0E94120AE091D501F091D60109
:1017C0009E8986899817A8F2E0925E01D2CFCD2B30
:1017D00011F00E94CC09E0905C01F0905D01E114F1
:1017E000F10409F4B8C089E0A82E77247394CC24BE
:1017F000CA94DC2C80917502811197C0C0918D0133
:10180000D0918E012196D0938E01C0938D012097A7
:10181000F1F4E0919201F0919301808181118FCFD9
:1018200080919201909193012091900130919101CA
:1018300030939301209392019093910180939001B2
:1018400080918F018F5F80938F010E94CC098091DE
:10185000630190916401B12CC817D90708F451C0F5
:10186000E0919201F09193018081811105C0D092A5
:101870006401C092630145C0E0919201F09193012F
:101880000580F681E02D06811781D80112968D9191
:101890009C911397C817D90728F4909364018093FB
:1018A00063012FC04801B2E08B0E911CC4010E945D
:1018B000EE09F80184899589892B21F0C8010C96DD
:1018C0000E94EE09D80156968C919091D3019817F9
:1018D00010F48093D301A89EC0011124B401815556
:1018E0009E4F0E94120AE091D501F091D601D801D5
:1018F00056969C918689981708F4B2CFBB24B3946E
:10190000AFCFE091D501F091D601E689AE9EF0010E
:101910001124E155FE4F8081823010F0BB24B39436
:1019200080915E0181110CC00AC080915C01909190
:101930005D01019690935D0180935C0103C0B1103D
:1019400070925E01B1E0EB1AF10809F053CF1092EA
:101950005D0110925C0180915E01882309F4FDCE47
:101960000E94330781E00F900FBEDF91CF911F914E
:101970000F91FF90EF90DF90CF90BF90AF909F902E
:101980008F907F900895809175028F5F809375028C
:101990000895CF93DF93009751F0EC010E94C30CA0
:1019A000CE010E94E911DF91CF910C948E0BDF9153
:1019B000CF91089580918801882309F10FB6F8949A
:1019C0000F92E091A201F091A301C681D781CE01CF
:1019D00002960E94EE098091D70181508093D70131
:1019E000809188018150809388010F900FBE8F896C
:1019F000988D0E94C90CCE010E94C90CDBCF80914A
:101A0000AF01823010F00E9433070E949C01D2CFB8
:101A1000CF93DF93EC010E94C30CCE010E945111C1
:101A2000EC010E948E0B209771F40E944C022FEF64
:101A300080E792E0215080409040E1F700C0000034
:101A40000E944A02F4CFCE01DF91CF910895CF9347
:101A5000DF93CDB7DEB72A970FB6F894DEBF0FBE7F
:101A6000CDBFE0916101F0916201F080FF2031F083
:101A70000580F681E02D0081118102C000E010E0B8
:101A80000E94C30C0E94E4096C018091890190912D
:101A90008A01C816D90620F40E94410A81E001C0DB
:101AA00080E0D0928A01C092890181117DC0FF201F
:101AB000C1F1C016D106E8F10E948E0BE0916101E0
:101AC000F09162010580F681E02DE680F780C70184
:101AD00002960E94EE09D70152968C91529782FF8E
:101AE00015C01C966D917C911D97600F711F980118
:101AF000A601C7010E94A209882359F0B801C701B5
:101B00000E942411811105C00E94CF028E7FF7012F
:101B1000828BD7015096ED91FC915197C7010995A1
:101B200089C0E0915F01F09160018081BB24B39492
:101B30008111B12CE0908B01F0908C010FB6F894DC
:101B40000F92F701858D8F3F09F4158ED7015E96B0
:101B50008C915E978F3F11F45E961C920F900FBE92
:101B6000F701828D811116C0C701419669F260911B
:101B7000D5017091D601645F7F4F0E94120AB110A7
:101B800004C0C8018C199D0902C08FEF9FEF6B2D17
:101B90000E94910AC7010E94EE060E948E0B8111DD
:101BA00049C00E94330746C00E948E0B43C00E946A
:101BB000ED0A882309F449C080E06801B1E1CB0E49
:101BC000D11C0FB6F8940F92F801F28CFF2009F4A3
:101BD000B1C0448D41113FC0FA94F801F28E808566
:101BE000811153C00F900FBEF980F7FC23C00C8108
:101BF0001D81D8011A968D919C911B97892B21F0FC
:101C0000C80102960E94EE090E94E4096C018091CD
:101C1000890190918A01C816D90610F40E94410AE0
:101C2000D0928A01C0928901EF2DFF0CFF0BEA30A0
:101C3000F105A8F100918B0110918C011A8619868B
:101C40000115110509F0B3CF5FCF89859A85892BDE
:101C500009F05ACFB1CF50E086819781840F951F4C
:101C600097838683248135818217930720F08081B2
:101C7000918197838683D80116966D917C911797F1
:101C8000CE0101960E949F12A7CFC80108960E941C
:101C9000350B882309F4A6CF0E943307A3CFEC5C51
:101CA000FF4FD80152968C910C9494128160F801E8
:101CB000828BEA80FB80648575856E0D7F1D9701A0
:101CC000A601C8010E94A209882309F4B3CFD80154
:101CD0005096ED91FC915197C8010995F8018289C0
:101CE00082FFA8CF648575856E0D7F1DC8010E9497
:101CF000241181119FCF08CF8160F801828B6A8106
:101D00007B81758764876115710509F4FDCE6C0DC3
:101D10007D1D9601A601C8010E94A2098BCF81FDFD
:101D200004C0C8010E94C90C85CF8E7FD80152968D
:101D30008C9380CF29853A85232B19F40F900FBE01
:101D400090CE811109C080918F018E8380918D0189
:101D500090918E0198878F830F900FBE0E94C30CC5
:101D60000FB6F8940F92D8015D968C915D978F3FD6
:101D700011F45D961C92F801868D8F3F09F4168E42
:101D80000F900FBEBE01675F7F4FCE0106960E9487
:101D9000FB0A81111CC0C8010E94E306882389F058
:101DA00069857A85C6010E94790BC8010E94EE06FA
:101DB0000E948E0B882311F081E003CF0E9433072D
:101DC000FBCFC8010E94EE060E948E0BF5CFC80122
:101DD0000E94EE060E948E0BC8010E94E306882333
:101DE00059F33FCEAF92BF92DF92EF92FF920F93E3
:101DF0001F93CF93DF9300D000D01F92CDB7DEB7F3
:101E00008C017B011D821C82009711F40E94CF027D
:101E1000672B21F4FC01848D8111F8CF0E94ED0A1B
:101E2000811104C08C819D81892B81F780E058014C
:101E3000F8E0AF0EB11C0FB6F8940F92F801228DA6
:101E4000938D291708F075C0D28C448D411147C07D
:101E500080819181892B09F05AC0F8018481958194
:101E6000009711F480E037C0E090D501F090D601E2
:101E7000E816F90659F6F70182A1882339F2815054
:101E800082A3268991A1291769F38111EBCF57010C
:101E9000F2E0AF0EB11CC5010E94EE09F70181A16D
:101EA000868B482F50E024E030E0241B350B35872B
:101EB00024879091D301981710F48093D30129E0DF
:101EC000249FC001259F900D1124B50181559E4F7F
:101ED0000E94120A81E0F8011582148219C050E0B4
:101EE000B701F801828193810E949F12F801248D2D
:101EF00082819381820F911D938382832481358116
:101F00008217930720F0808191819383828380E000
:101F1000D394F801D28E9189992321F0C80141967A
:101F20000E94350B81110E9433070F900FBE81E094
:101F300055C02C813D81232B19F40F900FBE4DC04D
:101F4000811109C080918F01898380918D019091C9
:101F50008E019B838A830F900FBE0E94C30C0FB625
:101F6000F8940F92F801858D8F3F09F4158EF801D2
:101F7000868D8F3F09F4168E0F900FBEBE016C5FE9
:101F80007F4FCE0101960E94FB0A811121C00FB63E
:101F9000F8940F92F801928D838D0F900FBE9813D5
:101FA00011C06C817D81C5010E94790BC8010E941E
:101FB000EE060E948E0B882311F081E03CCF0E9438
:101FC0003307FBCFC8010E94EE060E948E0BF5CFAF
:101FD000C8010E94EE060E948E0B80E00F900F90C9
:101FE0000F900F900F90DF91CF911F910F91FF9065
:101FF000EF90DF90BF90AF900895809175028111AE
:102000000E94CF020E94C30C60E08FE090E00E942B
:10201000910A0E948E0B811102C00E94330708951D
:102020007F928F929F92AF92BF92CF92DF92EF9268
:10203000FF920F931F93CF93DF93782EA92E6B01FE
:102040007A01B22ECA010E94080D4C01892B09F4B5
:10205000ECC088E290E00E94080DEC01892BC1F0F1
:10206000988E8F8AA70165EA70E0C4010E94A812C9
:1020700021E0E21AF108EF89F88DEE0DFF1DC11481
:10208000D104D1F0CE0149969601285F3F4F07C099
:10209000C4010E94C90CC9C0C216D30659F0A601DA
:1020A000D6016D916D01DC016D93CD01DA014C918A
:1020B0004111F2CF18A201C0198E8B2D843008F087
:1020C00083E08E8B89A31AA21B861A861D8A1C8A1E
:1020D000D987C88724E030E0A901481B51095D87F2
:1020E0004C87DB8BCA8B84E09E012D5D3F4FD9016D
:1020F0001D928A95E9F71FA27082DF011197AC92B9
:1021000011971C92119780E88C9311971C92579706
:102110001C9211971C92B397F983E883011511055E
:1021200019F0F801D183C0830FB6F8940F92809113
:10213000D7018F5F8093D7018091D5019091D6010F
:10214000892BD1F5D093D601C093D5018091D701C9
:10215000813009F041C08FEA91E00E94330A88EB98
:1021600091E00E94330A81EC91E00E94330A8AECEC
:1021700091E00E94330A8FE792E00E94330A86E7DB
:1021800092E00E94330A86EA91E00E94330A8DE9C8
:1021900091E00E94330A84E991E00E94330A8FE7BC
:1021A00092E0909393018093920186E792E090935E
:1021B00091018093900110C08091D40181110CC0D5
:1021C000E091D501F091D60196898E89891720F08A
:1021D000D093D601C093D501809188028F5F809300
:1021E00088028E899091D301981710F48093D301BF
:1021F000F9E08F9FC0011124BE016E5F7F4F8155B2
:102200009E4F0E94120A0F900FBE8091D401882326
:1022100051F0E091D501F091D60196898E899817F9
:1022200010F40E94330781E001C08FEFDF91CF915E
:102230001F910F91FF90EF90DF90CF90BF90AF90E4
:102240009F908F907F9008950F931F93CF93DF936C
:1022500000D000D01F92CDB7DEB7009711F40E94D6
:10226000CF0200918B0110918C010115110571F0C5
:1022700019827B836A839D838C830E94ED0ABE0151
:102280006F5F7F4FC8010E94F20E01C080E00F9087
:102290000F900F900F900F90DF91CF911F910F91A2
:1022A00008950F931F93CF93DF938230910510F41D
:1022B00082E090E0E0918B02F0918C0220E030E02F
:1022C000A0E0B0E0309719F1408151810281138183
:1022D00048175907C8F08417950769F4109731F02B
:1022E00012960C93129713961C9327C000938B029F
:1022F00010938C0222C02115310519F042175307A3
:1023000018F49A01BD01EF01DF01F801DBCF2115BF
:102310003105F9F0281B390B2430310580F48A810E
:102320009B816115710521F0FB019383828304C0B9
:1023300090938C0280938B02FE01329644C0FE0182
:10234000E20FF31F8193919322503109398328833F
:102350003AC02091890230918A02232B41F42091C6
:1023600002013091030130938A0220938902209167
:102370000001309101012115310541F42DB73EB71F
:102380004091040150910501241B350BE091890215
:10239000F0918A02E217F307A0F42E1B3F0B2817D7
:1023A000390778F0AC014E5F5F4F2417350748F0CE
:1023B0004E0F5F1F50938A0240938902819391933D
:1023C00002C0E0E0F0E0CF01DF91CF911F910F91CB
:1023D0000895CF93DF93009709F481C0FC013297F1
:1023E00013821282A0918B02B0918C02109781F41B
:1023F00020813181820F931F2091890230918A02BE
:102400002817390751F5F0938A02E093890267C0D3
:10241000ED0120E030E0CE17DF0740F44A815B8118
:102420009E0141155105F1F0EA01F5CFD383C28336
:1024300040815181840F951FC817D90759F48881AD
:102440009981840F951F0296918380838A819B8155
:10245000938382832115310529F4F0938C02E09354
:102460008B023DC0E901FB83EA8349915991C40F76
:10247000D51FEC17FD0761F480819181840F951FB2
:102480000296E90199838883828193819B838A8361
:10249000E0E0F0E012968D919C911397009719F06F
:1024A000FD01DC01F7CF8D919C9111979D012E5F6D
:1024B0003F4F820F931F2091890230918A02281783
:1024C000390769F4309729F410928C0210928B022C
:1024D00002C013821282B0938A02A0938902DF9114
:1024E000CF910895A1E21A2EAA1BBB1BFD010DC0BE
:1024F000AA1FBB1FEE1FFF1FA217B307E407F507B4
:1025000020F0A21BB30BE40BF50B661F771F881F8F
:10251000991F1A9469F760957095809590959B0125
:10252000AC01BD01CF010895EE0FFF1F0590F4919E
:10253000E02D099481E090E0F8940C94AF12FB0137
:10254000DC0102C001900D9241505040D8F708952F
:10255000DC0101C06D9341505040E0F70895F894BC
:02256000FFCFAB
:1025620000008D022000000000002D019600C40032
:102572007A01F500D300E70049444C4500546D72DE
:1025820020537663006475726174696F6E3A000D50
:102592000A0064697374616E6365526561643A002E
:1025A200426C696E6B0052656164416E616C6F676B
:0C25B200310052656164446973740000DC
:00000001FF
